:100000000C9434000C9451000C9451000C94700129
:100010000C9495010C94BA010C9451000C9451006D
:100020000C9451000C9451000C9451000C9451000C
:100030000C9451000C9451000C9451000C945100FC
:100040000C9451000C9451000C9451000C945100EC
:100050000C9451000C9451000C9451000C945100DC
:100060000C9451000C94510011241FBECFEFD8E026
:10007000DEBFCDBF12E0A0E0B1E0E8E8FCE002C0E6
:1000800005900D92A636B107D9F722E0A6E6B2E0B8
:1000900001C01D92A13AB207E1F70E9474030C94CB
:1000A00042060C942803CF92DF92EF92FF920F93B7
:1000B0001F93CF93DF937C01D090D801CD2CD70133
:1000C000EC91EE2349F0E03281F48FEFE81AF80A60
:1000D000D701EC91E111F7CFDF91CF911F910F91F3
:1000E000FF90EF90DF90CF90089587010F5F1F4F33
:1000F0007801EE0FFF0BEE5DFE4FC081D18189913B
:100100008823A9F08D3211F18E32C9F78C2D0E940F
:100110001D0282E390E00E94C7028C2D0E943402EF
:1001200082E390E00E94C70289918111EBCF84E6BF
:1001300090E00E94C702D801ED918D018E2F8F7D36
:10014000B9F688EC90E00E94C702B9CF8D2D0E94CD
:100150001D0286E990E00E94C7028D2D0E943402A4
:1001600082E390E00E94C702CACF8093660208959E
:1001700070E060E082E10E94FE0161E070E083E1F6
:100180000E94FE0161E070E084E10E94FE0161E0F6
:1001900070E085E10E94FE0170E060E082E10E9473
:1001A000DF0165EB70E082E10E947A020DC083E11D
:1001B0000E94340284E10E944C0285E10E944C02BC
:1001C00084E690E00E94C702809166028111EFCF21
:1001D00083E10E941D0284E10E94340285E10E94B5
:1001E0003402EECFFC015383428371836083089510
:1001F000DC01ED91FC91119714968D919C911597CE
:100200009C012F5F3F4F15963C932E931497E80F58
:10021000F91F60830895DC01ED91FC91119716960A
:100220008D919C9117979C012F5F3F4F17963C93A0
:100230002E931697E80FF91F80810895DC01ED9148
:10024000FC91119716968D919C91E80FF91F808172
:100250000895FC0181E04681578124813581421750
:10026000530709F080E008950F931F93CF93DF9316
:10027000C82FCC0FCC0FCC0F0C2F10E0000F111F8C
:1002800009591D4FD8E0DC0FD801ED91FD918D018A
:100290003097F1F08C2F86958695869590E09C019D
:1002A000220F331F820F931FDC0193968C9190E0F5
:1002B0002C2F277002C0959587952A95E2F78170BB
:1002C0009081981729F080830180F281E02D0995B3
:1002D000CF5FCD13D9CFDF91CF911F910F910895AB
:1002E0001F920F920FB60F9211242F933F934F93AB
:1002F0005F936F937F938F939F93AF93BF93EF938E
:10030000FF9380E00E943401FF91EF91BF91AF9184
:100310009F918F917F916F915F914F913F912F911D
:100320000F900FBE0F901F9018951F920F920FB64F
:100330000F9211242F933F934F935F936F937F936B
:100340008F939F93AF93BF93EF93FF9381E00E94AE
:100350003401FF91EF91BF91AF919F918F917F9168
:100360006F915F914F913F912F910F900FBE0F9022
:100370001F9018951F920F920FB60F9211242F9372
:100380003F934F935F936F937F938F939F93AF931D
:10039000BF93EF93FF9382E00E943401FF91EF91AE
:1003A000BF91AF919F918F917F916F915F914F918D
:1003B0003F912F910F900FBE0F901F901895E82F2F
:1003C000E695E695E6952E2F30E0F901EE0FFF1F3A
:1003D000E20FF31F95A1877021E030E0082E01C0E5
:1003E000220F0A94EAF72095292325A395A101C09D
:1003F000660F8A95EAF7692B65A30895E82FE695BD
:10040000E695E6952E2F30E0F901EE0FFF1FE20F83
:10041000F31F94A1877021E030E0082E01C0220F65
:100420000A94EAF72095292324A394A101C0660F1A
:100430008A95EAF7692B64A30895E82FE695E69577
:10044000E6952E2F30E0F901EE0FFF1FE20FF31FAC
:1004500095A1877021E030E001C0220F8A95EAF76C
:10046000892F822B85A30895E82FE695E695E695DA
:100470002E2F30E0F901EE0FFF1FE20FF31F35A121
:10048000282F277081E090E001C0880F2A95EAF7B5
:100490008095832385A30895E82FE695E695E69554
:1004A0002E2F30E0F901EE0FFF1FE20FF31F95A191
:1004B000877021E030E001C0220F8A95EAF7892F8A
:1004C000822785A30895282F26952695269530E026
:1004D000A901440F551F240F351FF90123A130E056
:1004E0008770A90102C0559547958A95E2F7CA0120
:1004F00081700895EF92FF920F931F93CF93DF9334
:10050000C82F7B01E8E6F0E02081382F369536953C
:100510003695032F10E081E090E0AC0101C0440F5C
:100520003A95EAF7242B2083F801E559FF4F208103
:10053000DC2FD7700D2E01C0880F0A94EAF7822BAA
:10054000808383E090E00E94F204EC2FF0E0EE0F55
:10055000FF1FE959FD4F91838083FC01F282E18204
:100560009801220F331F020F131FF80123A130E05F
:1005700002C035952795DA95E2F72170FC012083BA
:10058000DF91CF911F910F91FF90EF9008958F927F
:100590009F92AF92BF92CF92DF92EF92FF92BC01F7
:1005A00090E080E00E94CE034B015C0120E030E04F
:1005B0004AE755E40E945D046B017C0120E030E0D5
:1005C00040E85FE30E949A0387FD30C020E03FEFE0
:1005D0004FE757E4C701B6010E9458041816B4F457
:1005E00020E030E040E251E4C501B4010E945D0426
:1005F0000E949F036115710581F020E931E0C90176
:100600000197F1F761507109D1F707C0C701B60131
:100610000E949F03CB010197F1F7FF90EF90DF90CD
:10062000CF90BF90AF909F908F90089581E090E021
:10063000F2CF0E944E03EBE9F2E08EE091E093836B
:10064000828380E091E09183808308957894089577
:100650001F920F920FB60F9211242F933F934F9337
:100660005F936F937F938F939F93AF93BF93EF931A
:10067000FF9385E592E00E941706FF91EF91BF91ED
:10068000AF919F918F917F916F915F914F913F912A
:100690002F910F900FBE0F901F9018951092C500CC
:1006A00087E68093C40088E18093C10086E0809350
:1006B000C2000895CF93C82F8A3051F08091C000B6
:1006C00085FFFCCFC093C60090E080E0CF910895F5
:1006D0008DE00E945A03F2CF8091C00087FFFCCFCB
:1006E0008091C60090E00895C091D80161E070E06B
:1006F0008C2F0E94FE0189E392E00E9453000E9429
:1007000019038DE392E00E9417060E9426030E94BF
:10071000B8008C2F0E944C022FEF83ED90E3215004
:1007200080409040E1F700C000008FE492E00E941A
:100730001706EFCF0E940B0408F481E008950E9491
:10074000370488F09F5798F0B92F9927B751B0F028
:10075000E1F0660F771F881F991F1AF0BA95C9F745
:1007600014C0B13091F00E945104B1E008950C948E
:100770005104672F782F8827B85F39F0B93FCCF341
:10078000869577956795B395D9F73EF490958095C2
:10079000709561957F4F8F4F9F4F0895E89409C0E2
:1007A00097FB3EF490958095709561957F4F8F4FA4
:1007B0009F4F9923A9F0F92F96E9BB279395F695BA
:1007C000879577956795B795F111F8CFFAF4BB0F38
:1007D00011F460FF1BC06F5F7F4F8F4F9F4F16C09C
:1007E000882311F096E911C0772321F09EE8872F26
:1007F000762F05C0662371F096E8862F70E060E0E2
:100800002AF09A95660F771F881FDAF7880F96955A
:10081000879597F90895990F0008550FAA0BE0E8FE
:10082000FEEF16161706E807F907C0F012161306B2
:10083000E407F50798F0621B730B840B950B39F4F2
:100840000A2661F0232B242B252B21F408950A2658
:1008500009F4A140A6958FEF811D811D089557FDD4
:100860009058440F551F59F05F3F71F04795880F1E
:1008700097FB991F61F09F3F79F0879508951216B5
:1008800013061406551FF2CF4695F1DF08C0161661
:1008900017061806991FF1CF869571056105089412
:1008A0000895E894BB2766277727CB0197F9089529
:1008B0000E940B0408F48FEF08950E9470040C94BA
:1008C000E1040E94D30438F00E94DA0420F095235A
:1008D00011F00C94CA040C94D00411240C9452040A
:1008E0000E942F0470F3959FC1F3950F50E0551FA0
:1008F000629FF001729FBB27F00DB11D639FAA2775
:10090000F00DB11DAA1F649F6627B00DA11D661FC3
:10091000829F2227B00DA11D621F739FB00DA11DE4
:10092000621F839FA00D611D221F749F3327A00D9E
:10093000611D231F849F600D211D822F762F6A2F3A
:1009400011249F5750409AF0F1F088234AF0EE0F9F
:10095000FF1FBB1F661F771F881F91505040A9F7CC
:100960009E3F510580F00C94CA040C9452045F3FE2
:10097000E4F3983ED4F3869577956795B795F79508
:10098000E7959F5FC1F7FE2B880F911D9695879580
:1009900097F9089597F99F6780E870E060E00895FF
:1009A0009FEF80EC089500240A9416161706180687
:1009B0000906089500240A94121613061406050663
:1009C0000895092E0394000C11F4882352F0BB0FF4
:1009D00040F4BF2B11F460FF04C06F5F7F4F8F4F57
:1009E0009F4F08950F931F93CF93DF93823091050C
:1009F00010F482E090E0E0919902F0919A0230E0E8
:100A000020E0B0E0A0E0309799F42115310509F419
:100A10004AC0281B390B24303105D8F58A819B81C7
:100A20006115710589F1FB0193838283FE0111C079
:100A3000408151810281138148175907E0F048171E
:100A4000590799F4109761F012960C931297139628
:100A50001C933296CF01DF91CF911F910F91089592
:100A60000093990210939A02F4CF2115310551F0A9
:100A70004217530738F0A901DB019A01BD01DF01DC
:100A8000F801C1CFEF01F9CF90939A0280939902B8
:100A9000CDCFFE01E20FF31F8193919322503109D4
:100AA00039832883D7CF2091970230919802232B46
:100AB00041F420911E0130911F0130939802209340
:100AC000970220911C0130911D012115310541F43F
:100AD0002DB73EB74091200150912101241B350BC9
:100AE000E0919702F0919802E217F307A0F42E1B11
:100AF0003F0B2817390778F0AC014E5F5F4F241782
:100B0000350748F04E0F5F1F5093980240939702AD
:100B1000819391939FCFF0E0E0E09CCFCF93DF9360
:100B20000097E9F0FC01329713821282A09199029A
:100B3000B0919A02ED0130E020E01097A1F42081FD
:100B40003181820F931F20919702309198022817CC
:100B5000390709F061C0F0939802E0939702DF91A2
:100B6000CF910895EA01CE17DF07E8F54A815B814E
:100B70009E0141155105B1F7E901FB83EA834991D3
:100B80005991C40FD51FEC17FD0761F48081918145
:100B90000296840F951FE90199838883828193814E
:100BA0009B838A83F0E0E0E012968D919C911397ED
:100BB0000097B9F52D913C911197CD010296820FC6
:100BC000931F20919702309198022817390739F620
:100BD000309751F510929A0210929902B0939802B0
:100BE000A0939702BCCFD383C28340815181840FED
:100BF000951FC817D90761F44E5F5F4F88819981AF
:100C0000480F591F518340838A819B81938382833C
:100C10002115310509F0B0CFF0939A02E0939902C3
:100C20009ECFFD01DC01C0CF13821282D7CF0F937C
:100C30001F93CF93DF93E0919D02F0919E02238159
:100C4000EC0110E000E021FD08C00FEF1FEF14C021
:100C50000995892B11F00FEF1FEF899160919D028B
:100C600070919E02DB011896ED91FC918111F0CFFD
:100C70008AE00995892B49F7C801DF91CF911F912F
:080C80000F910895F894FFCFD5
:100C8800000000010000000000006C0300000000EC
:100C98000002000000005A03000000000000A1024A
:100CA800200000000000000000000000000000001C
:100CB800000000000000000000000000000000002C
:100CC800000000000000000000000000000000001C
:100CD800000000000000000000000000000000000C
:100CE80000000000000000000000000000000000FC
:100CF80000000000000000000000000000000000EC
:100D08000000DA01E001E601EC01F201F801FE0160
:100D180004020A02100200000000000000000000A7
:100D2800000000002C02050216020C0214021B022D
:100D38001202FF010D02E7012B022002DD0113025E
:100D4800DC0125022A0217020602DE013002F30145
:100D580035022F0234020B0205002D2D2D2D2D00FA
:100D68002E2D2D2D2D002E2E2D2D2D002E2E2E2DFF
:100D78002D002E2E2E2E2D002E2E2E2E2E002D2E18
:100D88002E2E2E002D2D2E2E2E002D2D2D2E2E000A
:100D98002D2D2D2D2E002D2E2D2E002E2E2D2E00FC
:100DA8002E2D2E2E002E2D2D2E002D2D2E2D002DEC
:100DB8002E2E2D002D2E2D2D00534F5300537461D0
:100DC8007274696E672054696E7952544F5300618A
:100DD8006C69766500556E65787065637465642026
:060DE8006572726F7200DB
:00000001FF
